{
  "_format": "hh-sol-artifact-1",
  "contractName": "USDLFactory",
  "sourceName": "contracts/USDLFactory.sol",
  "abi": [
    {
      "inputs": [
        {
          "internalType": "address",
          "name": "usdcAddress_",
          "type": "address"
        },
        {
          "internalType": "address",
          "name": "manager_",
          "type": "address"
        }
      ],
      "stateMutability": "nonpayable",
      "type": "constructor"
    },
    {
      "anonymous": false,
      "inputs": [
        {
          "indexed": true,
          "internalType": "address",
          "name": "owner",
          "type": "address"
        },
        {
          "indexed": true,
          "internalType": "address",
          "name": "spender",
          "type": "address"
        },
        {
          "indexed": false,
          "internalType": "uint256",
          "name": "value",
          "type": "uint256"
        }
      ],
      "name": "Approval",
      "type": "event"
    },
    {
      "anonymous": false,
      "inputs": [
        {
          "indexed": true,
          "internalType": "address",
          "name": "from",
          "type": "address"
        },
        {
          "indexed": false,
          "internalType": "uint256",
          "name": "amount",
          "type": "uint256"
        }
      ],
      "name": "EtherFund",
      "type": "event"
    },
    {
      "anonymous": false,
      "inputs": [
        {
          "indexed": true,
          "internalType": "bytes",
          "name": "data",
          "type": "bytes"
        },
        {
          "indexed": true,
          "internalType": "bytes4",
          "name": "sig",
          "type": "bytes4"
        }
      ],
      "name": "Messages",
      "type": "event"
    },
    {
      "anonymous": false,
      "inputs": [
        {
          "indexed": true,
          "internalType": "address",
          "name": "from",
          "type": "address"
        },
        {
          "indexed": true,
          "internalType": "address",
          "name": "to",
          "type": "address"
        },
        {
          "indexed": false,
          "internalType": "uint256",
          "name": "value",
          "type": "uint256"
        }
      ],
      "name": "Transfer",
      "type": "event"
    },
    {
      "anonymous": false,
      "inputs": [
        {
          "indexed": true,
          "internalType": "address",
          "name": "origin",
          "type": "address"
        },
        {
          "indexed": true,
          "internalType": "address",
          "name": "token",
          "type": "address"
        },
        {
          "indexed": true,
          "internalType": "uint256",
          "name": "amount",
          "type": "uint256"
        }
      ],
      "name": "VaultTransferred",
      "type": "event"
    },
    {
      "stateMutability": "payable",
      "type": "fallback"
    },
    {
      "inputs": [
        {
          "internalType": "address",
          "name": "owner",
          "type": "address"
        },
        {
          "internalType": "address",
          "name": "spender",
          "type": "address"
        }
      ],
      "name": "allowance",
      "outputs": [
        {
          "internalType": "uint256",
          "name": "",
          "type": "uint256"
        }
      ],
      "stateMutability": "view",
      "type": "function"
    },
    {
      "inputs": [
        {
          "internalType": "address",
          "name": "spender",
          "type": "address"
        },
        {
          "internalType": "uint256",
          "name": "amount",
          "type": "uint256"
        }
      ],
      "name": "approve",
      "outputs": [
        {
          "internalType": "bool",
          "name": "",
          "type": "bool"
        }
      ],
      "stateMutability": "nonpayable",
      "type": "function"
    },
    {
      "inputs": [
        {
          "internalType": "address",
          "name": "account",
          "type": "address"
        }
      ],
      "name": "balanceOf",
      "outputs": [
        {
          "internalType": "uint256",
          "name": "",
          "type": "uint256"
        }
      ],
      "stateMutability": "view",
      "type": "function"
    },
    {
      "inputs": [],
      "name": "decimals",
      "outputs": [
        {
          "internalType": "uint8",
          "name": "",
          "type": "uint8"
        }
      ],
      "stateMutability": "view",
      "type": "function"
    },
    {
      "inputs": [
        {
          "internalType": "address",
          "name": "spender",
          "type": "address"
        },
        {
          "internalType": "uint256",
          "name": "subtractedValue",
          "type": "uint256"
        }
      ],
      "name": "decreaseAllowance",
      "outputs": [
        {
          "internalType": "bool",
          "name": "",
          "type": "bool"
        }
      ],
      "stateMutability": "nonpayable",
      "type": "function"
    },
    {
      "inputs": [],
      "name": "fund",
      "outputs": [
        {
          "internalType": "bool",
          "name": "",
          "type": "bool"
        }
      ],
      "stateMutability": "payable",
      "type": "function"
    },
    {
      "inputs": [
        {
          "internalType": "address",
          "name": "spender",
          "type": "address"
        },
        {
          "internalType": "uint256",
          "name": "addedValue",
          "type": "uint256"
        }
      ],
      "name": "increaseAllowance",
      "outputs": [
        {
          "internalType": "bool",
          "name": "",
          "type": "bool"
        }
      ],
      "stateMutability": "nonpayable",
      "type": "function"
    },
    {
      "inputs": [],
      "name": "mint",
      "outputs": [
        {
          "internalType": "bool",
          "name": "",
          "type": "bool"
        }
      ],
      "stateMutability": "payable",
      "type": "function"
    },
    {
      "inputs": [
        {
          "internalType": "uint256",
          "name": "amount",
          "type": "uint256"
        }
      ],
      "name": "mint",
      "outputs": [
        {
          "internalType": "bool",
          "name": "",
          "type": "bool"
        }
      ],
      "stateMutability": "nonpayable",
      "type": "function"
    },
    {
      "inputs": [],
      "name": "name",
      "outputs": [
        {
          "internalType": "string",
          "name": "",
          "type": "string"
        }
      ],
      "stateMutability": "view",
      "type": "function"
    },
    {
      "inputs": [],
      "name": "symbol",
      "outputs": [
        {
          "internalType": "string",
          "name": "",
          "type": "string"
        }
      ],
      "stateMutability": "view",
      "type": "function"
    },
    {
      "inputs": [],
      "name": "totalSupply",
      "outputs": [
        {
          "internalType": "uint256",
          "name": "",
          "type": "uint256"
        }
      ],
      "stateMutability": "view",
      "type": "function"
    },
    {
      "inputs": [
        {
          "internalType": "address",
          "name": "recipient",
          "type": "address"
        },
        {
          "internalType": "uint256",
          "name": "amount",
          "type": "uint256"
        }
      ],
      "name": "transfer",
      "outputs": [
        {
          "internalType": "bool",
          "name": "",
          "type": "bool"
        }
      ],
      "stateMutability": "nonpayable",
      "type": "function"
    },
    {
      "inputs": [
        {
          "internalType": "address",
          "name": "sender",
          "type": "address"
        },
        {
          "internalType": "address",
          "name": "recipient",
          "type": "address"
        },
        {
          "internalType": "uint256",
          "name": "amount",
          "type": "uint256"
        }
      ],
      "name": "transferFrom",
      "outputs": [
        {
          "internalType": "bool",
          "name": "",
          "type": "bool"
        }
      ],
      "stateMutability": "nonpayable",
      "type": "function"
    },
    {
      "stateMutability": "payable",
      "type": "receive"
    }
  ],
  "bytecode": "0x60a06040526000196080523480156200001757600080fd5b50604051620015ac380380620015ac8339810160408190526200003a916200024e565b604080518082018252600981526813195b5b58481554d160ba1b6020808301918252835180850190945260048452631554d11360e21b90840152815191929162000087916003916200018b565b5080516200009d9060049060208401906200018b565b50506001600555506001600160a01b038216620001015760405162461bcd60e51b815260206004820152601c60248201527f5553444320616464726573732073686f756c64206e6f7420626520300000000060448201526064015b60405180910390fd5b6001600160a01b038116620001595760405162461bcd60e51b815260206004820152601f60248201527f4d616e6167657220616464726573732073686f756c64206e6f742062652030006044820152606401620000f8565b600680546001600160a01b039384166001600160a01b03199182161790915560078054929093169116179055620002c3565b828054620001999062000286565b90600052602060002090601f016020900481019282620001bd576000855562000208565b82601f10620001d857805160ff191683800117855562000208565b8280016001018555821562000208579182015b8281111562000208578251825591602001919060010190620001eb565b50620002169291506200021a565b5090565b5b808211156200021657600081556001016200021b565b80516001600160a01b03811681146200024957600080fd5b919050565b600080604083850312156200026257600080fd5b6200026d8362000231565b91506200027d6020840162000231565b90509250929050565b600181811c908216806200029b57607f821691505b60208210811415620002bd57634e487b7160e01b600052602260045260246000fd5b50919050565b6080516112d0620002dc600039600050506112d06000f3fe6080604052600436106100e15760003560e01c806370a082311161007f578063a457c2d711610059578063a457c2d714610242578063a9059cbb14610262578063b60d428814610282578063dd62ed3e1461028a576100f1565b806370a08231146101d757806395d89b411461020d578063a0712d6814610222576100f1565b806318160ddd116100bb57806318160ddd1461015c57806323b872dd1461017b578063313ce5671461019b57806339509351146101b7576100f1565b806306fdde03146100f9578063095ea7b3146101245780631249c58b14610154576100f1565b366100f1576100ee6102d0565b50005b6100ee6102d0565b34801561010557600080fd5b5061010e610361565b60405161011b91906110e1565b60405180910390f35b34801561013057600080fd5b5061014461013f366004611130565b6103f3565b604051901515815260200161011b565b610144610409565b34801561016857600080fd5b506002545b60405190815260200161011b565b34801561018757600080fd5b5061014461019636600461115a565b610556565b3480156101a757600080fd5b506040516012815260200161011b565b3480156101c357600080fd5b506101446101d2366004611130565b610617565b3480156101e357600080fd5b5061016d6101f2366004611196565b6001600160a01b031660009081526020819052604090205490565b34801561021957600080fd5b5061010e610653565b34801561022e57600080fd5b5061014461023d3660046111b1565b610662565b34801561024e57600080fd5b5061014461025d366004611130565b610782565b34801561026e57600080fd5b5061014461027d366004611130565b610833565b6101446102d0565b34801561029657600080fd5b5061016d6102a53660046111ca565b6001600160a01b03918216600090815260016020908152604080832093909416825291909152205490565b60008034116103265760405162461bcd60e51b815260206004820152601760248201527f796f75206d7573742073656e6420736f6d657468696e6700000000000000000060448201526064015b60405180910390fd5b60405134815233907fe7d9036a1a99d80640735fc6f4b95a23173d5468f91b17325f2a1bdcd3cd15919060200160405180910390a250600190565b606060038054610370906111fd565b80601f016020809104026020016040519081016040528092919081815260200182805461039c906111fd565b80156103e95780601f106103be576101008083540402835291602001916103e9565b820191906000526020600020905b8154815290600101906020018083116103cc57829003601f168201915b5050505050905090565b6000610400338484610840565b50600192915050565b60006002600554141561045e5760405162461bcd60e51b815260206004820152601f60248201527f5265656e7472616e637947756172643a207265656e7472616e742063616c6c00604482015260640161031d565b6002600555346104b05760405162461bcd60e51b815260206004820152601760248201527f796f75206d7573742073656e6420736f6d657468696e67000000000000000000604482015260640161031d565b6104c833346109c45b6104c3919061124e565b610964565b6104d134610a43565b61051d5760405162461bcd60e51b815260206004820152600e60248201527f73656e6420657468206661696c73000000000000000000000000000000000000604482015260640161031d565b604051349060009033907f74cb395fc5aaf821b7758e34498f9708161e1d589535ab1ffc6aeddea4b79d17908390a45060018060055590565b6000610563848484610aa3565b6001600160a01b0384166000908152600160209081526040808320338452909152902054828110156105fd5760405162461bcd60e51b815260206004820152602860248201527f45524332303a207472616e7366657220616d6f756e742065786365656473206160448201527f6c6c6f77616e6365000000000000000000000000000000000000000000000000606482015260840161031d565b61060a8533858403610840565b60019150505b9392505050565b3360008181526001602090815260408083206001600160a01b0387168452909152812054909161040091859061064e90869061126d565b610840565b606060048054610370906111fd565b6000600260055414156106b75760405162461bcd60e51b815260206004820152601f60248201527f5265656e7472616e637947756172643a207265656e7472616e742063616c6c00604482015260640161031d565b60026005556106c582610ca2565b6106ce57600080fd5b6106da338360016104b9565b6006546106f0906001600160a01b031683610dd1565b61073c5760405162461bcd60e51b815260206004820152601060248201527f73656e6420746f6b656e206661696c7300000000000000000000000000000000604482015260640161031d565b60065460405183916001600160a01b03169033907f74cb395fc5aaf821b7758e34498f9708161e1d589535ab1ffc6aeddea4b79d1790600090a450600180600555919050565b3360009081526001602090815260408083206001600160a01b03861684529091528120548281101561081c5760405162461bcd60e51b815260206004820152602560248201527f45524332303a2064656372656173656420616c6c6f77616e63652062656c6f7760448201527f207a65726f000000000000000000000000000000000000000000000000000000606482015260840161031d565b6108293385858403610840565b5060019392505050565b6000610400338484610aa3565b6001600160a01b0383166108a25760405162461bcd60e51b8152602060048201526024808201527f45524332303a20617070726f76652066726f6d20746865207a65726f206164646044820152637265737360e01b606482015260840161031d565b6001600160a01b0382166109035760405162461bcd60e51b815260206004820152602260248201527f45524332303a20617070726f766520746f20746865207a65726f206164647265604482015261737360f01b606482015260840161031d565b6001600160a01b0383811660008181526001602090815260408083209487168084529482529182902085905590518481527f8c5be1e5ebec7d5bd14f71427d1e84f3dd0314c0f7b2291e5b200ac8c7c3b925910160405180910390a3505050565b6001600160a01b0382166109ba5760405162461bcd60e51b815260206004820152601f60248201527f45524332303a206d696e7420746f20746865207a65726f206164647265737300604482015260640161031d565b80600260008282546109cc919061126d565b90915550506001600160a01b038216600090815260208190526040812080548392906109f990849061126d565b90915550506040518181526001600160a01b038316906000907fddf252ad1be2c89b69c2b068fc378daa952ba7f163c4a11628f55a4df523b3ef9060200160405180910390a35050565b60075460405160009182916001600160a01b039091169084908381818185875af1925050503d8060008114610a94576040519150601f19603f3d011682016040523d82523d6000602084013e610a99565b606091505b5090949350505050565b6001600160a01b038316610b1f5760405162461bcd60e51b815260206004820152602560248201527f45524332303a207472616e736665722066726f6d20746865207a65726f20616460448201527f6472657373000000000000000000000000000000000000000000000000000000606482015260840161031d565b6001600160a01b038216610b815760405162461bcd60e51b815260206004820152602360248201527f45524332303a207472616e7366657220746f20746865207a65726f206164647260448201526265737360e81b606482015260840161031d565b6001600160a01b03831660009081526020819052604090205481811015610c105760405162461bcd60e51b815260206004820152602660248201527f45524332303a207472616e7366657220616d6f756e742065786365656473206260448201527f616c616e63650000000000000000000000000000000000000000000000000000606482015260840161031d565b6001600160a01b03808516600090815260208190526040808220858503905591851681529081208054849290610c4790849061126d565b92505081905550826001600160a01b0316846001600160a01b03167fddf252ad1be2c89b69c2b068fc378daa952ba7f163c4a11628f55a4df523b3ef84604051610c9391815260200190565b60405180910390a35b50505050565b6000808211610cf35760405162461bcd60e51b815260206004820152601760248201527f796f75206d7573742073656e6420736f6d657468696e67000000000000000000604482015260640161031d565b6006546040516323b872dd60e01b8152336004820152306024820152604481018490526001600160a01b03909116906323b872dd90606401602060405180830381600087803b158015610d4557600080fd5b505af1158015610d59573d6000803e3d6000fd5b505050506040513d601f19601f82011682018060405250810190610d7d9190611285565b610dc95760405162461bcd60e51b815260206004820152601b60248201527f7472616e736665722066726f6d2063616e277420626520646f6e650000000000604482015260640161031d565b506001919050565b6007546000906104009084906001600160a01b031684610df1565b505050565b604080516001600160a01b03848116602483015260448083018590528351808403909101815260649092018352602080830180517bffffffffffffffffffffffffffffffffffffffffffffffffffffffff1663a9059cbb60e01b17905283518085019094528084527f5361666545524332303a206c6f772d6c6576656c2063616c6c206661696c656490840152610dec92869291600091610e96918516908490610f26565b805190915015610dec5780806020019051810190610eb49190611285565b610dec5760405162461bcd60e51b815260206004820152602a60248201527f5361666545524332303a204552433230206f7065726174696f6e20646964206e60448201527f6f74207375636365656400000000000000000000000000000000000000000000606482015260840161031d565b6060610f358484600085610f3d565b949350505050565b606082471015610fb55760405162461bcd60e51b815260206004820152602660248201527f416464726573733a20696e73756666696369656e742062616c616e636520666f60448201527f722063616c6c0000000000000000000000000000000000000000000000000000606482015260840161031d565b843b6110035760405162461bcd60e51b815260206004820152601d60248201527f416464726573733a2063616c6c20746f206e6f6e2d636f6e7472616374000000604482015260640161031d565b600080866001600160a01b0316858760405161101f91906112a7565b60006040518083038185875af1925050503d806000811461105c576040519150601f19603f3d011682016040523d82523d6000602084013e611061565b606091505b509150915061107182828661107c565b979650505050505050565b6060831561108b575081610610565b82511561109b5782518084602001fd5b8160405162461bcd60e51b815260040161031d91906110e1565b60005b838110156110d05781810151838201526020016110b8565b83811115610c9c5750506000910152565b60208152600082518060208401526111008160408501602087016110b5565b601f01601f19169190910160400192915050565b80356001600160a01b038116811461112b57600080fd5b919050565b6000806040838503121561114357600080fd5b61114c83611114565b946020939093013593505050565b60008060006060848603121561116f57600080fd5b61117884611114565b925061118660208501611114565b9150604084013590509250925092565b6000602082840312156111a857600080fd5b61061082611114565b6000602082840312156111c357600080fd5b5035919050565b600080604083850312156111dd57600080fd5b6111e683611114565b91506111f460208401611114565b90509250929050565b600181811c9082168061121157607f821691505b6020821081141561123257634e487b7160e01b600052602260045260246000fd5b50919050565b634e487b7160e01b600052601160045260246000fd5b600081600019048311821515161561126857611268611238565b500290565b6000821982111561128057611280611238565b500190565b60006020828403121561129757600080fd5b8151801515811461061057600080fd5b600082516112b98184602087016110b5565b919091019291505056fea164736f6c6343000809000a",
  "linkReferences": {},
  "deployedLinkReferences": {}
}