{
  "_format": "hh-sol-artifact-1",
  "contractName": "USDLFactory",
  "sourceName": "contracts/USDLFactory.sol",
  "abi": [
    {
      "inputs": [
        {
          "internalType": "address",
          "name": "usdcAddress_",
          "type": "address"
        },
        {
          "internalType": "address",
          "name": "manager_",
          "type": "address"
        }
      ],
      "stateMutability": "nonpayable",
      "type": "constructor"
    },
    {
      "anonymous": false,
      "inputs": [
        {
          "indexed": true,
          "internalType": "address",
          "name": "owner",
          "type": "address"
        },
        {
          "indexed": true,
          "internalType": "address",
          "name": "spender",
          "type": "address"
        },
        {
          "indexed": false,
          "internalType": "uint256",
          "name": "value",
          "type": "uint256"
        }
      ],
      "name": "Approval",
      "type": "event"
    },
    {
      "anonymous": false,
      "inputs": [
        {
          "indexed": true,
          "internalType": "address",
          "name": "sender",
          "type": "address"
        },
        {
          "indexed": true,
          "internalType": "address",
          "name": "token",
          "type": "address"
        },
        {
          "indexed": true,
          "internalType": "uint256",
          "name": "amount",
          "type": "uint256"
        }
      ],
      "name": "Deposited",
      "type": "event"
    },
    {
      "anonymous": false,
      "inputs": [
        {
          "indexed": true,
          "internalType": "address",
          "name": "from",
          "type": "address"
        },
        {
          "indexed": false,
          "internalType": "uint256",
          "name": "amount",
          "type": "uint256"
        }
      ],
      "name": "EtherFund",
      "type": "event"
    },
    {
      "anonymous": false,
      "inputs": [
        {
          "indexed": true,
          "internalType": "address",
          "name": "sender",
          "type": "address"
        },
        {
          "indexed": true,
          "internalType": "address",
          "name": "token",
          "type": "address"
        },
        {
          "indexed": true,
          "internalType": "uint256",
          "name": "amount",
          "type": "uint256"
        }
      ],
      "name": "Redeemed",
      "type": "event"
    },
    {
      "anonymous": false,
      "inputs": [
        {
          "indexed": true,
          "internalType": "address",
          "name": "from",
          "type": "address"
        },
        {
          "indexed": true,
          "internalType": "address",
          "name": "to",
          "type": "address"
        },
        {
          "indexed": false,
          "internalType": "uint256",
          "name": "value",
          "type": "uint256"
        }
      ],
      "name": "Transfer",
      "type": "event"
    },
    {
      "stateMutability": "payable",
      "type": "fallback"
    },
    {
      "inputs": [
        {
          "internalType": "address",
          "name": "owner",
          "type": "address"
        },
        {
          "internalType": "address",
          "name": "spender",
          "type": "address"
        }
      ],
      "name": "allowance",
      "outputs": [
        {
          "internalType": "uint256",
          "name": "",
          "type": "uint256"
        }
      ],
      "stateMutability": "view",
      "type": "function"
    },
    {
      "inputs": [
        {
          "internalType": "address",
          "name": "token",
          "type": "address"
        }
      ],
      "name": "allowedToken",
      "outputs": [
        {
          "internalType": "bool",
          "name": "",
          "type": "bool"
        }
      ],
      "stateMutability": "view",
      "type": "function"
    },
    {
      "inputs": [
        {
          "internalType": "address",
          "name": "spender",
          "type": "address"
        },
        {
          "internalType": "uint256",
          "name": "amount",
          "type": "uint256"
        }
      ],
      "name": "approve",
      "outputs": [
        {
          "internalType": "bool",
          "name": "",
          "type": "bool"
        }
      ],
      "stateMutability": "nonpayable",
      "type": "function"
    },
    {
      "inputs": [
        {
          "internalType": "address",
          "name": "account",
          "type": "address"
        }
      ],
      "name": "balanceOf",
      "outputs": [
        {
          "internalType": "uint256",
          "name": "",
          "type": "uint256"
        }
      ],
      "stateMutability": "view",
      "type": "function"
    },
    {
      "inputs": [],
      "name": "decimals",
      "outputs": [
        {
          "internalType": "uint8",
          "name": "",
          "type": "uint8"
        }
      ],
      "stateMutability": "view",
      "type": "function"
    },
    {
      "inputs": [
        {
          "internalType": "address",
          "name": "spender",
          "type": "address"
        },
        {
          "internalType": "uint256",
          "name": "subtractedValue",
          "type": "uint256"
        }
      ],
      "name": "decreaseAllowance",
      "outputs": [
        {
          "internalType": "bool",
          "name": "",
          "type": "bool"
        }
      ],
      "stateMutability": "nonpayable",
      "type": "function"
    },
    {
      "inputs": [],
      "name": "fund",
      "outputs": [
        {
          "internalType": "bool",
          "name": "",
          "type": "bool"
        }
      ],
      "stateMutability": "payable",
      "type": "function"
    },
    {
      "inputs": [
        {
          "internalType": "address",
          "name": "spender",
          "type": "address"
        },
        {
          "internalType": "uint256",
          "name": "addedValue",
          "type": "uint256"
        }
      ],
      "name": "increaseAllowance",
      "outputs": [
        {
          "internalType": "bool",
          "name": "",
          "type": "bool"
        }
      ],
      "stateMutability": "nonpayable",
      "type": "function"
    },
    {
      "inputs": [],
      "name": "mint",
      "outputs": [
        {
          "internalType": "bool",
          "name": "",
          "type": "bool"
        }
      ],
      "stateMutability": "payable",
      "type": "function"
    },
    {
      "inputs": [
        {
          "internalType": "address",
          "name": "token",
          "type": "address"
        },
        {
          "internalType": "uint256",
          "name": "amount",
          "type": "uint256"
        }
      ],
      "name": "mint",
      "outputs": [
        {
          "internalType": "bool",
          "name": "",
          "type": "bool"
        }
      ],
      "stateMutability": "nonpayable",
      "type": "function"
    },
    {
      "inputs": [
        {
          "internalType": "address",
          "name": "token",
          "type": "address"
        },
        {
          "internalType": "uint256",
          "name": "amount",
          "type": "uint256"
        }
      ],
      "name": "mintedAmount",
      "outputs": [
        {
          "internalType": "uint256",
          "name": "",
          "type": "uint256"
        }
      ],
      "stateMutability": "view",
      "type": "function"
    },
    {
      "inputs": [],
      "name": "name",
      "outputs": [
        {
          "internalType": "string",
          "name": "",
          "type": "string"
        }
      ],
      "stateMutability": "view",
      "type": "function"
    },
    {
      "inputs": [
        {
          "internalType": "address",
          "name": "token",
          "type": "address"
        },
        {
          "internalType": "uint256",
          "name": "amount",
          "type": "uint256"
        }
      ],
      "name": "redeem",
      "outputs": [
        {
          "internalType": "bool",
          "name": "",
          "type": "bool"
        }
      ],
      "stateMutability": "nonpayable",
      "type": "function"
    },
    {
      "inputs": [
        {
          "internalType": "address",
          "name": "token",
          "type": "address"
        },
        {
          "internalType": "uint256",
          "name": "amount",
          "type": "uint256"
        }
      ],
      "name": "reedemAmount",
      "outputs": [
        {
          "internalType": "uint256",
          "name": "",
          "type": "uint256"
        }
      ],
      "stateMutability": "view",
      "type": "function"
    },
    {
      "inputs": [],
      "name": "symbol",
      "outputs": [
        {
          "internalType": "string",
          "name": "",
          "type": "string"
        }
      ],
      "stateMutability": "view",
      "type": "function"
    },
    {
      "inputs": [],
      "name": "totalSupply",
      "outputs": [
        {
          "internalType": "uint256",
          "name": "",
          "type": "uint256"
        }
      ],
      "stateMutability": "view",
      "type": "function"
    },
    {
      "inputs": [
        {
          "internalType": "address",
          "name": "recipient",
          "type": "address"
        },
        {
          "internalType": "uint256",
          "name": "amount",
          "type": "uint256"
        }
      ],
      "name": "transfer",
      "outputs": [
        {
          "internalType": "bool",
          "name": "",
          "type": "bool"
        }
      ],
      "stateMutability": "nonpayable",
      "type": "function"
    },
    {
      "inputs": [
        {
          "internalType": "address",
          "name": "sender",
          "type": "address"
        },
        {
          "internalType": "address",
          "name": "recipient",
          "type": "address"
        },
        {
          "internalType": "uint256",
          "name": "amount",
          "type": "uint256"
        }
      ],
      "name": "transferFrom",
      "outputs": [
        {
          "internalType": "bool",
          "name": "",
          "type": "bool"
        }
      ],
      "stateMutability": "nonpayable",
      "type": "function"
    },
    {
      "stateMutability": "payable",
      "type": "receive"
    }
  ],
  "bytecode": "0x60806040523480156200001157600080fd5b5060405162001d2a38038062001d2a833981016040819052620000349162000297565b604080518082018252600981526813195b5b58481554d160ba1b6020808301918252835180850190945260048452631554d11360e21b9084015281519192916200008191600391620001d4565b50805162000097906004906020840190620001d4565b50506001600555506001600160a01b038216620000fb5760405162461bcd60e51b815260206004820152601c60248201527f5553444320616464726573732073686f756c64206e6f7420626520300000000060448201526064015b60405180910390fd5b6001600160a01b038116620001535760405162461bcd60e51b815260206004820152601f60248201527f4d616e6167657220616464726573732073686f756c64206e6f742062652030006044820152606401620000f2565b600680546001600160a01b039384166001600160a01b0319918216811790925560078054939094169216919091179091556000908152600860205260408120805460ff1990811660019081179092559180527f5eff886ea0ce6ca488a3d6e336d6c0f75f46d19b42c06ce5ee98e42c96d256c780549092161790556200030c565b828054620001e290620002cf565b90600052602060002090601f01602090048101928262000206576000855562000251565b82601f106200022157805160ff191683800117855562000251565b8280016001018555821562000251579182015b828111156200025157825182559160200191906001019062000234565b506200025f92915062000263565b5090565b5b808211156200025f576000815560010162000264565b80516001600160a01b03811681146200029257600080fd5b919050565b60008060408385031215620002ab57600080fd5b620002b6836200027a565b9150620002c6602084016200027a565b90509250929050565b600181811c90821680620002e457607f821691505b602082108114156200030657634e487b7160e01b600052602260045260246000fd5b50919050565b611a0e806200031c6000396000f3fe60806040526004361061012d5760003560e01c806370a08231116100a55780639e2bb53911610074578063a9059cbb11610059578063a9059cbb14610347578063b60d428814610367578063dd62ed3e1461036f5761013d565b80639e2bb53914610307578063a457c2d7146103275761013d565b806370a08231146102635780637457871914610299578063756742f8146102b957806395d89b41146102f25761013d565b80631e9a6950116100fc578063313ce567116100e1578063313ce56714610207578063395093511461022357806340c10f19146102435761013d565b80631e9a6950146101c757806323b872dd146101e75761013d565b806306fdde0314610145578063095ea7b3146101705780631249c58b146101a057806318160ddd146101a85761013d565b3661013d5761013a6103b5565b50005b61013a6103b5565b34801561015157600080fd5b5061015a610446565b60405161016791906117eb565b60405180910390f35b34801561017c57600080fd5b5061019061018b366004611835565b6104d8565b6040519015158152602001610167565b6101906104ee565b3480156101b457600080fd5b506002545b604051908152602001610167565b3480156101d357600080fd5b506101906101e2366004611835565b610637565b3480156101f357600080fd5b5061019061020236600461185f565b610970565b34801561021357600080fd5b5060405160128152602001610167565b34801561022f57600080fd5b5061019061023e366004611835565b610a31565b34801561024f57600080fd5b5061019061025e366004611835565b610a6d565b34801561026f57600080fd5b506101b961027e36600461189b565b6001600160a01b031660009081526020819052604090205490565b3480156102a557600080fd5b506101b96102b4366004611835565b610c3d565b3480156102c557600080fd5b506101906102d436600461189b565b6001600160a01b031660009081526008602052604090205460ff1690565b3480156102fe57600080fd5b5061015a610c66565b34801561031357600080fd5b506101b9610322366004611835565b610c75565b34801561033357600080fd5b50610190610342366004611835565b610c8a565b34801561035357600080fd5b50610190610362366004611835565b610d3b565b6101906103b5565b34801561037b57600080fd5b506101b961038a3660046118b6565b6001600160a01b03918216600090815260016020908152604080832093909416825291909152205490565b600080341161040b5760405162461bcd60e51b815260206004820152601760248201527f796f75206d7573742073656e6420736f6d657468696e6700000000000000000060448201526064015b60405180910390fd5b60405134815233907fe7d9036a1a99d80640735fc6f4b95a23173d5468f91b17325f2a1bdcd3cd15919060200160405180910390a250600190565b606060038054610455906118e9565b80601f0160208091040260200160405190810160405280929190818152602001828054610481906118e9565b80156104ce5780601f106104a3576101008083540402835291602001916104ce565b820191906000526020600020905b8154815290600101906020018083116104b157829003601f168201915b5050505050905090565b60006104e5338484610d48565b50600192915050565b6000600260055414156105435760405162461bcd60e51b815260206004820152601f60248201527f5265656e7472616e637947756172643a207265656e7472616e742063616c6c006044820152606401610402565b6002600555346105955760405162461bcd60e51b815260206004820152601660248201527f796f75206d7573742073656e6420736f6d6520657468000000000000000000006044820152606401610402565b6105a9336105a4600034610c3d565b610e6d565b6105b234610f4c565b6105fe5760405162461bcd60e51b815260206004820152600e60248201527f73656e6420657468206661696c730000000000000000000000000000000000006044820152606401610402565b604051349060009033907f8752a472e571a816aea92eec8dae9baf628e840f4929fbcc2d155e6233ff68a7908390a45060018060055590565b6001600160a01b03821660009081526008602052604081205460ff1661069f5760405162461bcd60e51b815260206004820152601160248201527f746f6b656e206e6f7420616c6c6f7765640000000000000000000000000000006044820152606401610402565b600082116106ef5760405162461bcd60e51b815260206004820152601760248201527f796f75206d7573742073656e6420736f6d657468696e670000000000000000006044820152606401610402565b6040516370a0823160e01b815233600482015260009030906370a082319060240160206040518083038186803b15801561072857600080fd5b505afa15801561073c573d6000803e3d6000fd5b505050506040513d601f19601f820116820180604052508101906107609190611924565b116107ad5760405162461bcd60e51b815260206004820152601760248201527f6d757374206861766520656e6f75676820746f6b656e730000000000000000006044820152606401610402565b60006107b98484610c75565b90506001600160a01b038416156108b6576040516370a0823160e01b815230600482015281906001600160a01b038616906370a082319060240160206040518083038186803b15801561080b57600080fd5b505afa15801561081f573d6000803e3d6000fd5b505050506040513d601f19601f820116820180604052508101906108439190611924565b101561089d5760405162461bcd60e51b815260206004820152602360248201527f7468697320636f6e747261637420646f65736e277420656e6f75676820616d6f6044820152621d5b9d60ea1b6064820152608401610402565b6108a8843383610fac565b6108b157600080fd5b610924565b804710156109125760405162461bcd60e51b815260206004820152602360248201527f7468697320636f6e747261637420646f65736e277420656e6f75676820616d6f6044820152621d5b9d60ea1b6064820152608401610402565b61091b81610f4c565b61092457600080fd5b61092e33846110b5565b60405181906001600160a01b0386169033907f27d4634c833b7622a0acddbf7f746183625f105945e95c723ad1d5a9f2a0b6fc90600090a45060019392505050565b600061097d848484611200565b6001600160a01b038416600090815260016020908152604080832033845290915290205482811015610a175760405162461bcd60e51b815260206004820152602860248201527f45524332303a207472616e7366657220616d6f756e742065786365656473206160448201527f6c6c6f77616e63650000000000000000000000000000000000000000000000006064820152608401610402565b610a248533858403610d48565b60019150505b9392505050565b3360008181526001602090815260408083206001600160a01b038716845290915281205490916104e5918590610a68908690611953565b610d48565b600060026005541415610ac25760405162461bcd60e51b815260206004820152601f60248201527f5265656e7472616e637947756172643a207265656e7472616e742063616c6c006044820152606401610402565b60026005556001600160a01b03831660009081526008602052604090205460ff16610b2f5760405162461bcd60e51b815260206004820152601160248201527f746f6b656e206e6f7420616c6c6f7765640000000000000000000000000000006044820152606401610402565b610b3a3384846113ff565b610b865760405162461bcd60e51b815260206004820152601360248201527f7472616e736665722066726f6d206661696c73000000000000000000000000006044820152606401610402565b610b94336105a48585610c3d565b600754610bac9084906001600160a01b031684610fac565b610bf85760405162461bcd60e51b815260206004820152601060248201527f73656e6420746f6b656e206661696c73000000000000000000000000000000006044820152606401610402565b60405182906001600160a01b0385169033907f8752a472e571a816aea92eec8dae9baf628e840f4929fbcc2d155e6233ff68a790600090a45060018060055592915050565b6000610c483061145c565b82610c528561145c565b610c5c919061196b565b610a2a919061198a565b606060048054610455906118e9565b6000610c808361145c565b82610c523061145c565b3360009081526001602090815260408083206001600160a01b038616845290915281205482811015610d245760405162461bcd60e51b815260206004820152602560248201527f45524332303a2064656372656173656420616c6c6f77616e63652062656c6f7760448201527f207a65726f0000000000000000000000000000000000000000000000000000006064820152608401610402565b610d313385858403610d48565b5060019392505050565b60006104e5338484611200565b6001600160a01b038316610daa5760405162461bcd60e51b8152602060048201526024808201527f45524332303a20617070726f76652066726f6d20746865207a65726f206164646044820152637265737360e01b6064820152608401610402565b6001600160a01b038216610e0b5760405162461bcd60e51b815260206004820152602260248201527f45524332303a20617070726f766520746f20746865207a65726f206164647265604482015261737360f01b6064820152608401610402565b6001600160a01b0383811660008181526001602090815260408083209487168084529482529182902085905590518481527f8c5be1e5ebec7d5bd14f71427d1e84f3dd0314c0f7b2291e5b200ac8c7c3b92591015b60405180910390a3505050565b6001600160a01b038216610ec35760405162461bcd60e51b815260206004820152601f60248201527f45524332303a206d696e7420746f20746865207a65726f2061646472657373006044820152606401610402565b8060026000828254610ed59190611953565b90915550506001600160a01b03821660009081526020819052604081208054839290610f02908490611953565b90915550506040518181526001600160a01b038316906000907fddf252ad1be2c89b69c2b068fc378daa952ba7f163c4a11628f55a4df523b3ef9060200160405180910390a35050565b60075460405160009182916001600160a01b039091169084908381818185875af1925050503d8060008114610f9d576040519150601f19603f3d011682016040523d82523d6000602084013e610fa2565b606091505b5090949350505050565b60006001600160a01b0384166110045760405162461bcd60e51b815260206004820152601360248201527f6d7573742062652076616c696420746f6b656e000000000000000000000000006044820152606401610402565b6001600160a01b03831661105a5760405162461bcd60e51b815260206004820152601560248201527f6d7573742062652076616c6964206164647265737300000000000000000000006044820152606401610402565b600082116110aa5760405162461bcd60e51b815260206004820152601760248201527f796f75206d7573742073656e6420736f6d657468696e670000000000000000006044820152606401610402565b610d31848484611483565b6001600160a01b0382166111155760405162461bcd60e51b815260206004820152602160248201527f45524332303a206275726e2066726f6d20746865207a65726f206164647265736044820152607360f81b6064820152608401610402565b6001600160a01b038216600090815260208190526040902054818110156111895760405162461bcd60e51b815260206004820152602260248201527f45524332303a206275726e20616d6f756e7420657863656564732062616c616e604482015261636560f01b6064820152608401610402565b6001600160a01b03831660009081526020819052604081208383039055600280548492906111b89084906119ac565b90915550506040518281526000906001600160a01b038516907fddf252ad1be2c89b69c2b068fc378daa952ba7f163c4a11628f55a4df523b3ef90602001610e60565b505050565b6001600160a01b03831661127c5760405162461bcd60e51b815260206004820152602560248201527f45524332303a207472616e736665722066726f6d20746865207a65726f20616460448201527f64726573730000000000000000000000000000000000000000000000000000006064820152608401610402565b6001600160a01b0382166112de5760405162461bcd60e51b815260206004820152602360248201527f45524332303a207472616e7366657220746f20746865207a65726f206164647260448201526265737360e81b6064820152608401610402565b6001600160a01b0383166000908152602081905260409020548181101561136d5760405162461bcd60e51b815260206004820152602660248201527f45524332303a207472616e7366657220616d6f756e742065786365656473206260448201527f616c616e636500000000000000000000000000000000000000000000000000006064820152608401610402565b6001600160a01b038085166000908152602081905260408082208585039055918516815290812080548492906113a4908490611953565b92505081905550826001600160a01b0316846001600160a01b03167fddf252ad1be2c89b69c2b068fc378daa952ba7f163c4a11628f55a4df523b3ef846040516113f091815260200190565b60405180910390a35b50505050565b60008082116114505760405162461bcd60e51b815260206004820152601760248201527f796f75206d7573742073656e6420736f6d657468696e670000000000000000006044820152606401610402565b610d3183853085611513565b60006001600160a01b0382161561147557506001919050565b506109c4919050565b919050565b6040516001600160a01b0383166024820152604481018290526111fb90849063a9059cbb60e01b906064015b60408051601f198184030181529190526020810180517bffffffffffffffffffffffffffffffffffffffffffffffffffffffff167fffffffff000000000000000000000000000000000000000000000000000000009093169290921790915261154b565b6040516001600160a01b03808516602483015283166044820152606481018290526113f99085906323b872dd60e01b906084016114af565b60006115a0826040518060400160405280602081526020017f5361666545524332303a206c6f772d6c6576656c2063616c6c206661696c6564815250856001600160a01b03166116309092919063ffffffff16565b8051909150156111fb57808060200190518101906115be91906119c3565b6111fb5760405162461bcd60e51b815260206004820152602a60248201527f5361666545524332303a204552433230206f7065726174696f6e20646964206e60448201527f6f742073756363656564000000000000000000000000000000000000000000006064820152608401610402565b606061163f8484600085611647565b949350505050565b6060824710156116bf5760405162461bcd60e51b815260206004820152602660248201527f416464726573733a20696e73756666696369656e742062616c616e636520666f60448201527f722063616c6c00000000000000000000000000000000000000000000000000006064820152608401610402565b843b61170d5760405162461bcd60e51b815260206004820152601d60248201527f416464726573733a2063616c6c20746f206e6f6e2d636f6e74726163740000006044820152606401610402565b600080866001600160a01b0316858760405161172991906119e5565b60006040518083038185875af1925050503d8060008114611766576040519150601f19603f3d011682016040523d82523d6000602084013e61176b565b606091505b509150915061177b828286611786565b979650505050505050565b60608315611795575081610a2a565b8251156117a55782518084602001fd5b8160405162461bcd60e51b815260040161040291906117eb565b60005b838110156117da5781810151838201526020016117c2565b838111156113f95750506000910152565b602081526000825180602084015261180a8160408501602087016117bf565b601f01601f19169190910160400192915050565b80356001600160a01b038116811461147e57600080fd5b6000806040838503121561184857600080fd5b6118518361181e565b946020939093013593505050565b60008060006060848603121561187457600080fd5b61187d8461181e565b925061188b6020850161181e565b9150604084013590509250925092565b6000602082840312156118ad57600080fd5b610a2a8261181e565b600080604083850312156118c957600080fd5b6118d28361181e565b91506118e06020840161181e565b90509250929050565b600181811c908216806118fd57607f821691505b6020821081141561191e57634e487b7160e01b600052602260045260246000fd5b50919050565b60006020828403121561193657600080fd5b5051919050565b634e487b7160e01b600052601160045260246000fd5b600082198211156119665761196661193d565b500190565b60008160001904831182151516156119855761198561193d565b500290565b6000826119a757634e487b7160e01b600052601260045260246000fd5b500490565b6000828210156119be576119be61193d565b500390565b6000602082840312156119d557600080fd5b81518015158114610a2a57600080fd5b600082516119f78184602087016117bf565b919091019291505056fea164736f6c6343000809000a",
  "linkReferences": {},
  "deployedLinkReferences": {}
}